{
  "transactions": [
    {
      "hash": "0x5cbec721b12e6ff756dafe6f00b1f8af3dbb89c9a25ad990f447a937cd73e0b0",
      "transactionType": "CALL",
      "contractName": null,
      "contractAddress": "0x389dfe3c7b7f771c5dce1a40233310b8bd79dc84",
      "function": "mintNFT(string)",
      "arguments": [
        "ipfs://bafybeig37ioir76s7mg5oobetncojcm3c3hxasyd4rvid4jqhy4gkaheg4/?filename=0-PUG.json"
      ],
      "transaction": {
        "from": "0x9c43be7100c2d2e8204145183756eb4ba2cae3c7",
        "to": "0x389dfe3c7b7f771c5dce1a40233310b8bd79dc84",
        "gas": "0x3d61a",
        "value": "0x0",
        "input": "0xfb37e88300000000000000000000000000000000000000000000000000000000000000200000000000000000000000000000000000000000000000000000000000000057697066733a2f2f62616679626569673337696f6972373673376d67356f6f6265746e636f6a636d3363336878617379643472766964346a71687934676b61686567342f3f66696c656e616d653d302d5055472e6a736f6e000000000000000000",
        "nonce": "0x12",
        "chainId": "0xaa36a7"
      },
      "additionalContracts": [],
      "isFixedGasLimit": false
    }
  ],
  "receipts": [
    {
      "status": "0x1",
      "cumulativeGasUsed": "0x1357ee4",
      "logs": [
        {
          "address": "0x389dfe3c7b7f771c5dce1a40233310b8bd79dc84",
          "topics": [
            "0xddf252ad1be2c89b69c2b068fc378daa952ba7f163c4a11628f55a4df523b3ef",
            "0x0000000000000000000000000000000000000000000000000000000000000000",
            "0x0000000000000000000000009c43be7100c2d2e8204145183756eb4ba2cae3c7",
            "0x0000000000000000000000000000000000000000000000000000000000000000"
          ],
          "data": "0x",
          "blockHash": "0x7dd2a6e24cec3d9030b3941bd820a050094adb7e5c4ed7b1bf287f23e2f9d1f5",
          "blockNumber": "0x755f21",
          "transactionHash": "0x5cbec721b12e6ff756dafe6f00b1f8af3dbb89c9a25ad990f447a937cd73e0b0",
          "transactionIndex": "0x5e",
          "logIndex": "0xef",
          "removed": false
        }
      ],
      "logsBloom": "0x00000000000000000000040000000000000000000000000000000000000000000000000000000000000000000000000000000000000000000000000000000000000000000000000000000008000000000000000000000000000000400000000000000000020000000040000000000800000000000000000000000010000000010000000000000000000000000000000000000000000000000000000000000000000000000000000001000000000000000000000000000000000000000000000000000002000000000000000000000000000000000000000000000000000020000000000000000000040000000000000000000000000000000000000000000000",
      "type": "0x2",
      "transactionHash": "0x5cbec721b12e6ff756dafe6f00b1f8af3dbb89c9a25ad990f447a937cd73e0b0",
      "transactionIndex": "0x5e",
      "blockHash": "0x7dd2a6e24cec3d9030b3941bd820a050094adb7e5c4ed7b1bf287f23e2f9d1f5",
      "blockNumber": "0x755f21",
      "gasUsed": "0x2c707",
      "effectiveGasPrice": "0x2be79d921",
      "from": "0x9c43be7100c2d2e8204145183756eb4ba2cae3c7",
      "to": "0x389dfe3c7b7f771c5dce1a40233310b8bd79dc84",
      "contractAddress": null
    }
  ],
  "libraries": [],
  "pending": [],
  "returns": {},
  "timestamp": 1739357845,
  "chain": 11155111,
  "commit": "c4d711d"
}